:100000000EC030C02FC02EC02DC02DC02BC02AC0A6
:1000100029C028C027C026C025C024C023C0112461
:100020001FBECFEDCDBFF89487E090E08870992790
:10003000892B11F088E201C088E097E09770892B46
:10004000982F88E10FB6F894A89581BD0FBE91BD99
:1000500020E0A0E6B0E001C01D92A336B207E1F7B0
:10006000ADD0C9C0CDCF1F920F9200905F000F920C
:1000700011242F933F934F935F936F937F938F93AD
:100080009F93AF93BF93EF93FF93CF93DF93CDB73E
:10009000DD2780916100909162000197909362004A
:1000A000809361008091610090916200892B09F436
:1000B00014D0DF91CF91FF91EF91BF91AF919F91BC
:1000C0008F917F916F915F914F913F912F910F9001
:1000D00000925F000F901F901895CF93DF93CDB7DC
:1000E000DD2787EE91E0909362008093610080911C
:1000F0006000882329F08091600081508093600027
:10010000DF91CF910895CF93DF93CDB7DD2787E3BC
:1001100090E021E0FC01208388E390E021E0FC01F5
:1001200020838AE490E021E8FC01208383E590E0CD
:1001300025E0FC01208380E590E02FE0FC01208396
:100140008CE490E02CE430E0F90120812260FC0195
:1001500020838FE490E0FC01108287EE91E0909381
:1001600062008093610089E590E024E0FC01208337
:100170007894DF91CF910895CF93DF9300D0CDB7DE
:10018000DD279A83898389819A818F3F910531F098
:100190002CF08FEF90E09A83898306C089819A8141
:1001A000992314F41A82198289E490E02981FC01D0
:1001B0002083CE5FCDBFDF91CF910895CF93DF93A2
:1001C000CDB7DD27A0DF80E290E0D6DFA895FECF97
:1001D000CF93DF931F92CDB7DD27898389818093E9
:1001E000600001C0A895809160008823D9F70F9026
:0A01F000DF91CF910895F894FFCF3E
:00000001FF
