:100000000EC025C023C022C0CFC020C01FC01EC04C
:1000100035C01CC01BC01AC019C018C017C011249D
:100020001FBECFEDCDBFF8949FE088E10FB6F894E6
:10003000A89581BD0FBE91BD20E0A0E6B0E001C053
:100040001D92A737B207E1F7F6D1E7C2D9CF1F92C9
:100050000F920FB60F9211248F939F93809160009F
:1000600090916100019690936100809360009F9150
:100070008F910F900FBE0F901F9018951F920F92A7
:100080000FB60F9211240F931F932F933F934F930B
:100090005F936F937F938F939F93AF93BF9324B19D
:1000A00080916E0090916F00A0917000B0917100EE
:1000B000820F911DA11DB11D80936E0090936F0062
:1000C000A0937000B093710085B140916E00509183
:1000D0006F006091700070917100837090E0982FB4
:1000E00088278A019B01080F191F211D311D0093CC
:1000F0006E0010936F002093700030937100809118
:100100007400882321F080917400815019C080917F
:100110006E0090916F00A0917000B0917100892FD6
:100120009A2FAB2FBB27909373008093720010928D
:100130006E0010926F0010927000109271008FEF9D
:1001400080937400BF91AF919F918F917F916F9138
:100150005F914F913F912F911F910F910F900FBE83
:100160000F901F90189582E090E090936D0080931F
:100170006C00809160009091610090937600809374
:1001800075001092610010926000809166008823D3
:1001900029F080916600815080936600809167000D
:1001A0008160809367008FC01F920F920FB60F92ED
:1001B00011242F933F934F935F936F937F938F936C
:1001C0009F93AF93BF93EF93FF9380916C009091B7
:1001D0006D00019790936D0080936C0080916C008E
:1001E00090916D00892B09F4BEDFFF91EF91BF91D3
:1001F000AF919F918F917F916F915F914F913F91BF
:100200002F910F900FBE0F901F9018958AB58F7386
:100210008ABDC09808958AB580688ABD089597FF01
:1002200002C080E090E08F3F910519F014F08FEF4D
:1002300090E089BD892B09F4E9CFEDCF81E087BB40
:1002400088BB8AB583608ABD83B7816083BF8FEF27
:1002500090E0E5DFE0DF80B78F6080BF8CB5826023
:100260008CBD1FBC82E090E090936D0080936C0089
:1002700089B7846089BF85B7836085BF8BB7806489
:100280008BBF109261001092600010927600109265
:10029000750080E987B9399AA49A13B88FEE86B9A8
:1002A00010926E0010926F00109270001092710008
:1002B00010927300109272008FEF8093740010926E
:1002C0006700789408958091650080FD0FC02091AB
:1002D000750030917600409168005091690089B5B1
:1002E00090E0241B350B821B930B99CF08958093CC
:1002F000660080916600882311F0A895FACF0895D2
:10030000009759F48091650080FD31C080E090E055
:1003100086DF80916500816028C020916200309165
:1003200063002817390728F48091620090916300D8
:100330000BC020916A0030916B008217930720F464
:1003400080916A0090916B0090936900809368009F
:100350008091650080FF0BC08091640090E05FDFBA
:1003600083E0C5DF809165008E7F809365000895EE
:10037000CF93DF930097C9F0209162003091630022
:1003800040916A0050916B00C0916A00D0916B005F
:10039000BC016150710980E090E0241B350B40E006
:1003A00050E0ABD0832F8C0F01C080E090E0DF9154
:1003B000CF91A6CFCF92DF92EF92FF920F931F9330
:1003C000CF93DF938C0180E090E015D17C0108177A
:1003D000190718F182E090E006D1C82FD0E02196ED
:1003E00083E0C82ED12CE016F106A8F4C601FBD09C
:1003F0009FEFC91AD90A90E8C916D10489F0282FAD
:100400002F7030E02F5F3F4FE20EF31E82958F700A
:10041000C80FD11DE8CFCE0105C080E090E002C03A
:1004200080E091E0DF91CF911F910F91FF90EF90CD
:10043000DF90CF90089581E080936500FFDE80E03B
:1004400090E0EDDE8FEF90E0909376008093750062
:100450008091750090917600892B99F081E047DFBB
:10046000F7CF8091750090917600049778F489B564
:1004700090E00196D4DE809167008E7F80936700C4
:10048000A8958091670080FFFBCFEBCF85E02FDF41
:1004900089B5809364008091750090917600909367
:1004A0006B0080936A008FEF90E0B9DE85E01FDF7C
:1004B0008091750090917600909363008093620024
:1004C000209162003091630080916A0090916B00EE
:1004D0008217930710F0A895FECF8FEF90E010DF02
:1004E00080E090E00DDF809172009091730062DFF8
:1004F0003FDFA895F8CF68940013E894A0E0B0E03F
:10050000E3E8F2E01DC0EFEFE7F959016A015E236D
:10051000550FEE08FE2C87019B01AC019E23990F1D
:10052000660B762FCB0131D0CDB7DD27EAE01FC0B7
:100530002F923F924F925F926F927F928F929F92F3
:10054000AF92BF92CF92DF92EF92FF920F931F93E1
:10055000CF93DF93CDB7CA1BCDBFDD2709942A887F
:10056000398848885F846E847D848C849B84AA84C7
:10057000B984C884DF80EE80FD800C811B81AA8154
:10058000D981CE0FCDBFCA2F0895DF93CF939F920D
:10059000A0E49A2E0024D001E001F0011695079501
:1005A000F794E794D794C794B794A79448F4106845
:1005B000A20FB31FC41FD51FE61FF71F081E191E69
:1005C000220F331F441F551F661F771F881F991F57
:1005D0009A9421F79D01AE01BF01C00111249F90A3
:1005E000CF91DF910895E199FECF1FBA8EBBE09ABB
:1005F00099278DB30895A8E142E002C0A82F862F65
:10060000E82FE199FECF1FBA05C0EEBBE09AE39553
:0E0610000DB20D924150C8F70895F894FFCF37
:00000001FF
